:100000000C942A000C9447000C9447000C94470071
:100010000C94E8050C94BF050C9496050C946D05A2
:100020000C9444050C941B050C94F2040C94C90424
:100030000C9447000C94AB010C9447000C944700BF
:100040000C9447000C9447000C9447000C94470014
:100050000C94470011241FBECFE5D8E0DEBFCDBF12
:1000600010E0A0E6B0E0ECEEF1E102C005900D92E8
:10007000AC3AB107D9F720E0ACEAB0E001C01D927C
:10008000AF3EB207E1F70E9434010C94F4080C94DF
:1000900000008093B0008FEF0E94A70181E0809361
:1000A000B60061E083E00E94FA010895E0EBF0E021
:1000B000808182958695877081838081807190E0B0
:1000C0009595879595958795959587959595879518
:1000D000838380818F7082830895CF93DF93CDB720
:1000E000DEB72B970FB6F894DEBF0FBECDBFF894E6
:1000F0000E94DD010E94F0028BE0E1EAF0E0DE0107
:10010000119601900D928A95E1F7CE0101960E9419
:100110008A010E94DC022B960FB6F894DEBF0FBE58
:10012000CDBFDF91CF910895CF93DF931F92CDB7CD
:10013000DEB719820DC0E981F0E0A981B0E0A055D9
:10014000BF4F8C91E455FF4F808389818F5F8983F6
:100150008981843080F30F90DF91CF910895809151
:10016000B200893071F028F4833089F0863039F09C
:1001700004C08C3041F08F3041F080E0089586E477
:10018000089580E508958AE5089584E608958CE34E
:1001900008958091B600882309F459C01092B600E2
:1001A0008091B500882331F060E082E00E94FA017E
:1001B0001092B5000E94560080916000882351F093
:1001C000109260000E9494008091B30090E00E9421
:1001D000160311C09091B1008091AD00981305C035
:1001E00061E080E00E94FA0106C00E94940060E095
:1001F00080E00E94FA018091B30090E04091AF004E
:1002000021E030E0442311F020E030E08217930732
:1002100061F40E942E038091B30090E00E941603C7
:1002200061E081E00E94FA0109C060E081E00E9483
:10023000FA018091B30090E00E9416030E94AF0083
:100240000E94100361E084E00E94FA01089561E0D9
:1002500082E00E94FA0181E08093B5008091B400B1
:100260008F5F8093B40008950E946D00FFCF0F93BD
:100270001F938B019C0141110EC060E271EA87E07F
:1002800090E0A90198010E94DD06215031098BB14F
:100290008D7F8BB90DC060E472E48FE090E0A9011E
:1002A00098010E94DD06215031098BB182608BB923
:1002B00030BD29B91F910F910895823051F018F483
:1002C000813081F004C0833031F0843031F080E837
:1002D0000AC084E808C086E806C08AB184608AB98A
:1002E00086E801C082E8613019F0623019F003C07D
:1002F000806201C08063413009F4886080BD089548
:10030000813021F480B5806480BD089580B58F7BF5
:1003100080BD0895CF93DF93EC01688179818A8154
:100320009B8148850E9437014D816C818E810E949E
:100330005D018F810E94800189859A859093B80024
:100340008093B70088E98AB9DF91CF9108955D9BCA
:10035000FECF8CB908951F920F920FB60F92112401
:100360002F933F934F935F936F937F938F939F93BD
:10037000AF93BF93EF93FF938CB12091B70030916F
:10038000B800232B31F0E091B700F091B800099547
:1003900003C08FE30E94A701FF91EF91BF91AF913E
:1003A0009F918F917F916F915F914F913F912F918D
:1003B0000F900FBE0F901F901895CF93C0E016C0FE
:1003C000EC2FF0E0CF01880F991FE80FF91FEF59CC
:1003D000FF4F80819181282F2295207F892F8F7058
:1003E000822B880F61E00E948B06CF5FC53040F3FF
:1003F000CF910895853020F5623020F590E0FC0122
:10040000EE0FFF1FE80FF91FEF59FF4F2281213038
:1004100039F0211107C041E0662329F040E003C014
:10042000462F01C0462FFC01EE0FFF1F8E0F9F1FAE
:10043000FC01EF59FF4F618180810E9411060895F0
:1004400081E0089582E00895CF92DF92EF92FF92CB
:100450001F93CF93DF938091BD009091BE00A09138
:10046000BF00B091C0004091C1005091C2006091A6
:10047000C3007091C40084179507A607B70709F059
:1004800088C067C0C12FD0E0FE01EE0FFF1FCE0174
:10049000880F991F880F991F880F991FE80FF91F60
:1004A000E059FF4F86819781A085B1850097A1050E
:1004B000B105C9F5C090B900D090BA00E090BB007A
:1004C000F090BC00CE01880F991F880F991F880FEC
:1004D000991FFE01EE0FFF1FE80FF91FE059FF4FB4
:1004E0002281338144815581C701B6010E94DD0616
:1004F000672B682B692B59F5CD28CE28CF2839F1E9
:10050000CE01880F991FCC0FDD1FCC0FDD1FCC0F44
:10051000DD1FC80FD91FC059DF4FE881F98130971F
:10052000B1F0099514C09E01220F331FCC0FDD1FBF
:10053000CC0FDD1FCC0FDD1FC20FD31FC059DF4F03
:100540000197A109B1098E839F83A887B9871F5F8F
:1005500001C010E0143008F495CF8091B90090915B
:10056000BA00A091BB00B091BC000196A11DB11DC5
:100570008093B9009093BA00A093BB00B093BC00E5
:100580001092BD001092BE001092BF001092C000E9
:100590000BC00196A11DB11D8093BD009093BE00BC
:1005A000A093BF00B093C000DF91CF911F91FF9047
:1005B000EF90DF90CF900895F89482E00E94F903C5
:1005C00065E084E292E00E94BB0421EC30E041E06F
:1005D00050E060E070E082E00E941F047894FFCF5A
:1005E00061E083E10E948B0661E080E10E948B065E
:1005F00061E081E10E948B0640E060E081E00E94C2
:10060000110640E061E081E00E94110660E082E0B6
:100610000E94470680E00E947D060E9464060895BD
:10062000853608F084E60E946E060895892B59F0FD
:1006300041E060E081E00E94110640E061E081E07D
:100640000E941106089540E060E081E00E941106DA
:1006500041E061E081E00E941106089541E060E020
:1006600081E00E94110641E061E081E00E941106F4
:1006700080E00E9410030895CF93DF931F92CDB7BF
:10068000DEB7198280919800813031F098F0823085
:1006900051F08330B1F01BC08981877F89838981C4
:1006A0008F7B898314C089818860898389818F7B4E
:1006B00089830DC08981877F89838981806489834B
:1006C00006C089818860898389818064898390914B
:1006D00099008981892B8983898183BF89B781604A
:1006E00089BF0F90DF91CF910895CF93DF931F9231
:1006F000CDB7DEB7198280919B00843019F48EB596
:1007000082608EBD0F90DF91CF910895CF93DF93DC
:100710001F92CDB7DEB7198280919E00813031F0F3
:10072000C8F0823051F08330E1F021C08981877FA9
:10073000898389818F7B89831AC0898188608983B5
:1007400089818F7B898389818062898389818F7E7A
:1007500089830DC08981877F8983898180648983AA
:1007600006C08981886089838981806489839091AA
:100770009F008981892B8983898185BD89B78064A0
:1007800089BF0F90DF91CF9108958F929F92AF9282
:10079000BF92CF92DF92EF92FF92CF93DF934B0104
:1007A0005C010E949A07EB01072E000C880B990B45
:1007B0000E94D2079B01AC01C501B4010E945E08F2
:1007C00018160CF42196BE01DD0F880B990BDF91F2
:1007D000CF91FF90EF90DF90CF90BF90AF909F9020
:1007E0008F900895882311F0823011F488E00895E5
:1007F0000895813041F018F0823049F00CC00E9419
:100800003C0380E008950E94750380E008950E94F3
:10081000860380E0089581E00895813039F018F072
:10082000823041F00AC042BF80E008955DBD4CBDFA
:1008300080E0089544BD80E0089581E008958F929E
:100840009F92AF92BF92CF92DF92EF92FF920F935F
:100850001F93CF93833008F07FC02115310509F431
:100860007DC089016A017B01C82F0E94F203282FF5
:1008700030E040E050E060E072E18AE790E00E9402
:10088000DD0660E472E48FE090E00E94DD06CC2398
:1008900011F0C23029F48824922EA32EB42E09C060
:1008A000C13021F459019924882403C0812C912C52
:1008B0005401A8EEB3E0A70196010E940E07A5011E
:1008C00094010E94DD06CA01B9010E94D0076B01A4
:1008D0007C010E94C503F801608371838283938346
:1008E0000E94D0079B01AC01C701B6010E942D07F1
:1008F000CC2311F0C23099F420E030E040E853E41A
:100900000E9463089B01AC0160E070E080E893E422
:100910000E942D070E94A107AB01BC0118C0C13085
:1009200099F420E030E040E857E40E9463089B011E
:10093000AC0160E070E080E897E40E942D070E941F
:10094000A107AB01BC0103C040E050E0BA018C2F0D
:100950000E940D0480E003C081E001C084E0CF91DB
:100960001F910F91FF90EF90DF90CF90BF90AF90CD
:100970009F908F900895009751F0E62FF0E0EE0FD2
:10098000FF1FEB53FF4F9183808380E0089584E045
:1009900008951F920F920FB60F9211242F933F9339
:1009A0004F935F936F937F938F939F93AF93BF9377
:1009B000EF93FF93E091DB00F091DC00309709F0BA
:1009C0000995FF91EF91BF91AF919F918F917F9189
:1009D0006F915F914F913F912F910F900FBE0F90AC
:1009E0001F9018951F920F920FB60F9211242F93FC
:1009F0003F934F935F936F937F938F939F93AF93A7
:100A0000BF93EF93FF93E091D900F091DA00309714
:100A100009F00995FF91EF91BF91AF919F918F914F
:100A20007F916F915F914F913F912F910F900FBEEA
:100A30000F901F9018951F920F920FB60F921124CE
:100A40002F933F934F935F936F937F938F939F93D6
:100A5000AF93BF93EF93FF93E091D700F091D8004D
:100A6000309709F00995FF91EF91BF91AF919F9158
:100A70008F917F916F915F914F913F912F910F9047
:100A80000FBE0F901F9018951F920F920FB60F92E6
:100A900011242F933F934F935F936F937F938F9383
:100AA0009F93AF93BF93EF93FF93E091D500F091A5
:100AB000D600309709F00995FF91EF91BF91AF9162
:100AC0009F918F917F916F915F914F913F912F9166
:100AD0000F900FBE0F901F9018951F920F920FB698
:100AE0000F9211242F933F934F935F936F937F93B4
:100AF0008F939F93AF93BF93EF93FF93E091D300B6
:100B0000F091D400309709F00995FF91EF91BF91D2
:100B1000AF919F918F917F916F915F914F913F9195
:100B20002F910F900FBE0F901F9018951F920F924C
:100B30000FB60F9211242F933F934F935F936F93B0
:100B40007F938F939F93AF93BF93EF93FF93E09126
:100B5000D100F091D200309709F00995FF91EF9103
:100B6000BF91AF919F918F917F916F915F914F91C5
:100B70003F912F910F900FBE0F901F9018951F92CD
:100B80000F920FB60F9211242F933F934F935F93C1
:100B90006F937F938F939F93AF93BF93EF93FF9345
:100BA000E091CF00F091D000309709F00995FF91C6
:100BB000EF91BF91AF919F918F917F916F915F91D5
:100BC0004F913F912F910F900FBE0F901F9018954E
:100BD0001F920F920FB60F9211242F933F934F93B2
:100BE0005F936F937F938F939F93AF93BF93EF9395
:100BF000FF93E091CD00F091CE00309709F0099578
:100C0000FF91EF91BF91AF919F918F917F916F91E4
:100C10005F914F913F912F910F900FBE0F901F90BA
:100C20001895843060F5683060F5423060F590E0EA
:100C3000FC01EE0FFF1F8E0F9F1FEE27FF27E81B03
:100C4000F90BF996413061F4228181E090E002C015
:100C5000880F991F6A95E2F7822B828380E00895BE
:100C6000411113C0228181E090E002C0880F991FDA
:100C70006A95E2F780958223828380E0089583E07D
:100C8000089582E0089581E0089580E00895883015
:100C9000B8F46536B8F493B7977B93BF93B7987F52
:100CA00093BF93B7892B886483BF2FEF629FC001E6
:100CB000112464E670E00E94C9066CBF80E00895CC
:100CC00083E0089585E0089583B7877029F483B79A
:100CD000816083BF80E0089582E00895853658F4EE
:100CE0002FEF829FC001112464E670E00E94C906C4
:100CF0006CBF80E0089585E0089593B79F7C93BF13
:100D0000811104C083B7806283BF03C083B780634F
:100D100083BF80E00895282F22952F708F70883030
:100D200080F5243080F5623080F530E0F901EE0F77
:100D3000FF1F2E0F3F1FEE27FF27E21BF30BF99635
:100D4000662381F0613019F5418121E030E0B9017D
:100D500002C0660F771F8A95E2F7CB01842B81834F
:100D600080E00895418121E030E0B90102C0660FC2
:100D7000771F8A95E2F7CB0180958423818380E0F9
:100D8000089581E0089581E0089584E0089580E069
:100D9000089597FB072E16F4009407D077FD09D02D
:100DA0000E94190707FC05D03EF4909581959F4F4E
:100DB0000895709561957F4F0895A1E21A2EAA1BA0
:100DC000BB1BFD010DC0AA1FBB1FEE1FFF1FA217FB
:100DD000B307E407F50720F0A21BB30BE40BF50BF8
:100DE000661F771F881F991F1A9469F76095709581
:100DF000809590959B01AC01BD01CF010895A29F04
:100E0000B001B39FC001A39F700D811D1124911DDE
:100E1000B29F700D811D1124911D08950E94FF063F
:100E2000A59F900DB49F900DA49F800D911D11243E
:100E30000895AA1BBB1B51E107C0AA1FBB1FA61721
:100E4000B70710F0A61BB70B881F991F5A95A9F773
:100E500080959095BC01CD0108955058BB27AA27D5
:100E60000E9445070C9424080E94160838F00E943E
:100E70001D0820F039F49F3F19F426F40C94130850
:100E80000EF4E095E7FB0C940D08E92F0E9435085D
:100E900058F3BA17620773078407950720F079F4AF
:100EA000A6F50C9457080EF4E0950B2EBA2FA02D42
:100EB0000B01B90190010C01CA01A0011124FF2707
:100EC000591B99F0593F50F4503E68F11A16F04002
:100ED000A22F232F342F4427585FF3CF4695379501
:100EE0002795A795F0405395C9F77EF41F16BA0BC6
:100EF000620B730B840BBAF09150A1F0FF0FBB1F74
:100F0000661F771F881FC2F70EC0BA0F621F731FBC
:100F1000841F48F4879577956795B795F7959E3F19
:100F200008F0B0CF9395880F08F09927EE0F9795AA
:100F3000879508950E94A1076894B1110C945808F0
:100F400008950E943D0888F09F5798F0B92F99277F
:100F5000B751B0F0E1F0660F771F881F991F1AF0A4
:100F6000BA95C9F714C0B13091F00E945708B1E0AA
:100F700008950C945708672F782F8827B85F39F0A9
:100F8000B93FCCF3869577956795B395D9F73EF43D
:100F900090958095709561957F4F8F4F9F4F0895E5
:100FA000E89409C097FB3EF4909580957095619503
:100FB0007F4F8F4F9F4F9923A9F0F92F96E9BB27B9
:100FC0009395F695879577956795B795F111F8CF35
:100FD000FAF4BB0F11F460FF1BC06F5F7F4F8F4FA0
:100FE0009F4F16C0882311F096E911C0772321F096
:100FF0009EE8872F762F05C0662371F096E8862F2E
:1010000070E060E02AF09A95660F771F881FDAF784
:10101000880F9695879597F9089597F99F6780E8C7
:1010200070E060E008959FEF80EC089500240A943A
:101030001616170618060906089500240A941216B3
:101040001306140605060895092E0394000C11F4E6
:10105000882352F0BB0F40F4BF2B11F460FF04C093
:101060006F5F7F4F8F4F9F4F089557FD9058440FEC
:10107000551F59F05F3F71F04795880F97FB991FF7
:1010800061F09F3F79F087950895121613061406B4
:10109000551FF2CF4695F1DF08C016161706180641
:1010A000991FF1CF86957105610508940895E8941C
:1010B000BB2766277727CB0197F908950E94D008B0
:1010C00008F48FEF08950E9476080C9424080E947B
:1010D000160838F00E941D0820F0952311F00C949A
:1010E0000D080C94130811240C9458080E9435081C
:1010F00070F3959FC1F3950F50E0551F629FF0016B
:10110000729FBB27F00DB11D639FAA27F00DB11D83
:10111000AA1F649F6627B00DA11D661F829F22270C
:10112000B00DA11D621F739FB00DA11D621F839F93
:10113000A00D611D221F749F3327A00D611D231F69
:10114000849F600D211D822F762F6A2F11249F57B7
:1011500050409AF0F1F088234AF0EE0FFF1FBB1FBA
:10116000661F771F881F91505040A9F79E3F510579
:1011700080F00C940D080C9458085F3FE4F3983EFF
:10118000D4F3869577956795B795F795E7959F5F23
:10119000C1F7FE2B880F911D9695879597F90895B5
:1011A000990F0008550FAA0BE0E8FEEF1616170678
:1011B000E807F907C0F012161306E407F50798F0E0
:1011C000621B730B840B950B39F40A2661F0232BF9
:1011D000242B252B21F408950A2609F4A140A69575
:0C11E0008FEF811D811D0895F894FFCF52
:1011EC0001000001000101000201000301000401E3
:1011FC00C900FA0000000000000000000000000020
:10120C0000000000000000000000000000000000D2
:10121C0000000000000000000202010402010102B3
:0C122C00018025000000000300004900C4
:00000001FF
