:100000000C942A000C9447000C9447000C94470071
:100010000C9447000C9447000C9447000C94470044
:100020000C9447000C9447000C945D020C9434022D
:100030000C9447000C9447000C9447000C94470024
:100040000C9447000C9447000C9447000C94470014
:100050000C94470011241FBECFE5D8E0DEBFCDBF12
:1000600010E0A0E6B0E0E8EEF5E002C005900D92E9
:10007000A036B107D9F720E0A0E6B0E001C01D929C
:10008000A436B207E1F70E94B1010C94F2020C947D
:100090000000683008F07CC0843008F07BC0442346
:1000A000D9F1413009F078C0813091F028F08230E8
:1000B000D9F0833029F172C02BB381E090E002C007
:1000C000880F991F6A95E2F7822B8BBB80E0089519
:1000D00028B381E090E002C0880F991F6A95E2F78B
:1000E000822B88BB80E0089525B381E090E002C0B8
:1000F000880F991F6A95E2F7822B85BB80E00895EF
:1001000022B381E090E002C0880F991F6A95E2F760
:10011000822B82BB80E00895813099F028F08230F4
:10012000E9F0833041F13CC02BB381E090E002C0A4
:10013000880F991F6A95E2F7809582238BBB80E038
:10014000089528B381E090E002C0880F991F6A9556
:10015000E2F78095822388BB80E0089525B381E093
:1001600090E002C0880F991F6A95E2F7809582237C
:1001700085BB80E0089522B381E090E002C0880F43
:10018000991F6A95E2F78095822382BB80E00895EB
:1001900082E0089583E0089581E0089581E0089564
:1001A00081E00895413029F0E0F1423009F485C042
:1001B000D0C0813091F028F08230D9F0833029F11D
:1001C000CAC02AB381E090E002C0880F991F6A95E7
:1001D000E2F7822B8ABB80E0089527B381E090E0AC
:1001E00002C0880F991F6A95E2F7822B87BB80E0D7
:1001F000089524B381E090E002C0880F991F6A95AA
:10020000E2F7822B84BB80E0089521B381E090E087
:1002100002C0880F991F6A95E2F7822B81BB80E0AC
:1002200008958130B9F028F0823029F18330A1F1AE
:1002300094C02AB381E090E002C0880F991F6A95AC
:10024000E2F78095922F98239ABB9BB389238BBBAF
:1002500080E0089527B381E090E002C0880F991FE5
:100260006A95E2F78095922F982397BB98B38923DC
:1002700088BB80E0089524B381E090E002C0880F3D
:10028000991F6A95E2F78095922F982394BB95B3B6
:10029000892385BB80E0089521B381E090E002C00E
:1002A000880F991F6A95E2F78095922F982391BB4A
:1002B00092B3892382BB80E008958130B9F028F0A1
:1002C000823029F18330A1F14AC02AB381E090E065
:1002D00002C0880F991F6A95E2F7982F9095922394
:1002E0009ABB9BB3892B8BBB80E0089527B381E039
:1002F00090E002C0880F991F6A95E2F7982F9095B9
:10030000922397BB98B3892B88BB80E0089524B3D0
:1003100081E090E002C0880F991F6A95E2F7982F5C
:100320009095922394BB95B3892B85BB80E008956B
:1003300021B381E090E002C0880F991F6A95E2F72F
:10034000982F9095922391BB92B3892B82BB80E02A
:10035000089581E0089581E0089581E0089581E0A5
:1003600008950E94EF0181E090E00E940E02C0E03B
:100370000AC08C2F0E9408028FE39CE90197F1F7D5
:1003800000C00000C65FC536A0F3C4E60AC08C2FCB
:100390000E9408028FE39CE90197F1F700C000007A
:1003A000CA50C111F4CF80E090E00E940E0286E4B2
:1003B0000E9408029FEF21EE84E09150204080408F
:1003C000E1F700C000000E9426029FEF21EE84E0CA
:1003D000915020408040E1F700C00000C4CF41E0D0
:1003E00063E081E00E94D20041E060E081E00E9491
:1003F000D20041E061E081E00E94D20060E083E051
:100400000E94860280E00E94BC020E94A30208951E
:10041000853608F084E60E94AD020895892B59F0D4
:1004200041E060E081E00E94490040E061E081E05D
:100430000E944900089540E060E081E00E94490088
:1004400041E061E081E00E944900089541E060E000
:1004500081E00E94490041E061E081E00E944900A2
:1004600080E00E94080208951F920F920FB60F922B
:1004700011242F933F934F935F936F937F938F93A9
:100480009F93AF93BF93EF93FF93E0916200F0913E
:100490006300309709F00995FF91EF91BF91AF91FB
:1004A0009F918F917F916F915F914F913F912F918C
:1004B0000F900FBE0F901F9018951F920F920FB6BE
:1004C0000F9211242F933F934F935F936F937F93DA
:1004D0008F939F93AF93BF93EF93FF93E09160004F
:1004E000F0916100309709F00995FF91EF91BF916C
:1004F000AF919F918F917F916F915F914F913F91BC
:100500002F910F900FBE0F901F9018958830B8F460
:100510006536B8F493B7977B93BF93B7987F93BF33
:1005200093B7892B886483BF2FEF629FC00111248A
:1005300064E670E00E94CA026CBF80E0089583E028
:10054000089585E0089583B7877029F483B78160A3
:1005500083BF80E0089582E00895853658F42FEF38
:10056000829FC001112464E670E00E94CA026CBF41
:1005700080E0089585E0089593B79F7C93BF811133
:1005800004C083B7806283BF03C083B7806383BF27
:1005900080E0089597FB072E16F4009407D077FDAE
:1005A00009D00E94DE0207FC05D03EF490958195AB
:1005B0009F4F0895709561957F4F0895AA1BBB1BAF
:1005C00051E107C0AA1FBB1FA617B70710F0A61B53
:1005D000B70B881F991F5A95A9F780959095BC0174
:0805E000CD010895F894FFCF4E
:00000001FF
